{
  "contractName": "MarketPlace",
  "abi": [
    {
      "inputs": [],
      "stateMutability": "nonpayable",
      "type": "constructor"
    },
    {
      "stateMutability": "payable",
      "type": "fallback",
      "payable": true
    },
    {
      "inputs": [
        {
          "internalType": "address",
          "name": "",
          "type": "address"
        }
      ],
      "name": "availableBalances",
      "outputs": [
        {
          "internalType": "uint256",
          "name": "",
          "type": "uint256"
        }
      ],
      "stateMutability": "view",
      "type": "function",
      "constant": true
    },
    {
      "inputs": [
        {
          "internalType": "address",
          "name": "",
          "type": "address"
        }
      ],
      "name": "balances",
      "outputs": [
        {
          "internalType": "uint256",
          "name": "",
          "type": "uint256"
        }
      ],
      "stateMutability": "view",
      "type": "function",
      "constant": true
    },
    {
      "inputs": [
        {
          "internalType": "address",
          "name": "",
          "type": "address"
        }
      ],
      "name": "members",
      "outputs": [
        {
          "internalType": "bool",
          "name": "",
          "type": "bool"
        }
      ],
      "stateMutability": "view",
      "type": "function",
      "constant": true
    },
    {
      "inputs": [
        {
          "internalType": "uint256",
          "name": "",
          "type": "uint256"
        }
      ],
      "name": "offers",
      "outputs": [
        {
          "internalType": "uint256",
          "name": "id",
          "type": "uint256"
        },
        {
          "internalType": "address",
          "name": "seller",
          "type": "address"
        },
        {
          "internalType": "string",
          "name": "description",
          "type": "string"
        },
        {
          "internalType": "uint256",
          "name": "price",
          "type": "uint256"
        },
        {
          "internalType": "enum MarketPlace.Status",
          "name": "status",
          "type": "uint8"
        }
      ],
      "stateMutability": "view",
      "type": "function",
      "constant": true
    },
    {
      "inputs": [
        {
          "internalType": "uint256",
          "name": "",
          "type": "uint256"
        }
      ],
      "name": "trades",
      "outputs": [
        {
          "internalType": "uint256",
          "name": "id",
          "type": "uint256"
        },
        {
          "internalType": "uint256",
          "name": "offerId",
          "type": "uint256"
        },
        {
          "internalType": "address",
          "name": "buyer",
          "type": "address"
        },
        {
          "internalType": "address",
          "name": "seller",
          "type": "address"
        },
        {
          "internalType": "uint256",
          "name": "price",
          "type": "uint256"
        },
        {
          "internalType": "enum MarketPlace.Status",
          "name": "status",
          "type": "uint8"
        }
      ],
      "stateMutability": "view",
      "type": "function",
      "constant": true
    },
    {
      "inputs": [
        {
          "internalType": "string",
          "name": "description",
          "type": "string"
        },
        {
          "internalType": "uint256",
          "name": "price",
          "type": "uint256"
        }
      ],
      "name": "sell",
      "outputs": [],
      "stateMutability": "nonpayable",
      "type": "function"
    },
    {
      "inputs": [
        {
          "internalType": "uint256",
          "name": "offerId",
          "type": "uint256"
        }
      ],
      "name": "buy",
      "outputs": [],
      "stateMutability": "nonpayable",
      "type": "function"
    },
    {
      "inputs": [],
      "name": "deposit",
      "outputs": [],
      "stateMutability": "payable",
      "type": "function",
      "payable": true
    },
    {
      "inputs": [
        {
          "internalType": "uint256",
          "name": "txId",
          "type": "uint256"
        }
      ],
      "name": "settle",
      "outputs": [],
      "stateMutability": "nonpayable",
      "type": "function"
    },
    {
      "inputs": [
        {
          "internalType": "address",
          "name": "member",
          "type": "address"
        }
      ],
      "name": "register",
      "outputs": [],
      "stateMutability": "nonpayable",
      "type": "function"
    },
    {
      "inputs": [
        {
          "internalType": "address",
          "name": "member",
          "type": "address"
        }
      ],
      "name": "unregister",
      "outputs": [],
      "stateMutability": "nonpayable",
      "type": "function"
    }
  ],
  "bytecode": "0x60806040526001600655600160075534801561001a57600080fd5b5033600560006101000a81548173ffffffffffffffffffffffffffffffffffffffff021916908373ffffffffffffffffffffffffffffffffffffffff160217905550611dca8061006b6000396000f3fe6080604052600436106100a05760003560e01c80638a72ea6a116100645780638a72ea6a146102ba5780638df82800146103ab5780639f656321146103e6578063d0e30db014610476578063d96a094a14610480578063dc3774b3146104bb576100a1565b806308ae4b0c146100a35780631e6c598e1461010a57806327e235e3146101b35780632ec2c246146102185780634420e48614610269576100a1565b5b005b3480156100af57600080fd5b506100f2600480360360208110156100c657600080fd5b81019080803573ffffffffffffffffffffffffffffffffffffffff169060200190929190505050610520565b60405180821515815260200191505060405180910390f35b34801561011657600080fd5b506101436004803603602081101561012d57600080fd5b8101908080359060200190929190505050610540565b604051808781526020018681526020018573ffffffffffffffffffffffffffffffffffffffff1681526020018473ffffffffffffffffffffffffffffffffffffffff16815260200183815260200182600181111561019d57fe5b8152602001965050505050505060405180910390f35b3480156101bf57600080fd5b50610202600480360360208110156101d657600080fd5b81019080803573ffffffffffffffffffffffffffffffffffffffff1690602001909291905050506105c9565b6040518082815260200191505060405180910390f35b34801561022457600080fd5b506102676004803603602081101561023b57600080fd5b81019080803573ffffffffffffffffffffffffffffffffffffffff1690602001909291905050506105e1565b005b34801561027557600080fd5b506102b86004803603602081101561028c57600080fd5b81019080803573ffffffffffffffffffffffffffffffffffffffff1690602001909291905050506108ec565b005b3480156102c657600080fd5b506102f3600480360360208110156102dd57600080fd5b8101908080359060200190929190505050610c45565b604051808681526020018573ffffffffffffffffffffffffffffffffffffffff1681526020018060200184815260200183600181111561032f57fe5b8152602001828103825285818151815260200191508051906020019080838360005b8381101561036c578082015181840152602081019050610351565b50505050905090810190601f1680156103995780820380516001836020036101000a031916815260200191505b50965050505050505060405180910390f35b3480156103b757600080fd5b506103e4600480360360208110156103ce57600080fd5b8101908080359060200190929190505050610d40565b005b3480156103f257600080fd5b506104746004803603604081101561040957600080fd5b810190808035906020019064010000000081111561042657600080fd5b82018360208201111561043857600080fd5b8035906020019184600183028401116401000000008311171561045a57600080fd5b909192939192939080359060200190929190505050611003565b005b61047e611375565b005b34801561048c57600080fd5b506104b9600480360360208110156104a357600080fd5b81019080803590602001909291905050506115ae565b005b3480156104c757600080fd5b5061050a600480360360208110156104de57600080fd5b81019080803573ffffffffffffffffffffffffffffffffffffffff169060200190929190505050611ae5565b6040518082815260200191505060405180910390f35b60046020528060005260406000206000915054906101000a900460ff1681565b60006020528060005260406000206000915090508060000154908060010154908060020160009054906101000a900473ffffffffffffffffffffffffffffffffffffffff16908060030160009054906101000a900473ffffffffffffffffffffffffffffffffffffffff16908060040154908060050160009054906101000a900460ff16905086565b60026020528060005260406000206000915090505481565b80600180156106b55760011515600460008473ffffffffffffffffffffffffffffffffffffffff1673ffffffffffffffffffffffffffffffffffffffff16815260200190815260200160002060009054906101000a900460ff161515146106b0576040517f08c379a00000000000000000000000000000000000000000000000000000000081526004018080602001828103825260128152602001807f6d7573742062652072656769737465726564000000000000000000000000000081525060200191505060405180910390fd5b61077c565b60001515600460008473ffffffffffffffffffffffffffffffffffffffff1673ffffffffffffffffffffffffffffffffffffffff16815260200190815260200160002060009054906101000a900460ff1615151461077b576040517f08c379a00000000000000000000000000000000000000000000000000000000081526004018080602001828103825260168152602001807f6d757374204e4f5420626520726567697374657265640000000000000000000081525060200191505060405180910390fd5b5b600560009054906101000a900473ffffffffffffffffffffffffffffffffffffffff1673ffffffffffffffffffffffffffffffffffffffff163373ffffffffffffffffffffffffffffffffffffffff161461083f576040517f08c379a000000000000000000000000000000000000000000000000000000000815260040180806020018281038252600a8152602001807f6f6e6c792061646d696e0000000000000000000000000000000000000000000081525060200191505060405180910390fd5b6000600260008573ffffffffffffffffffffffffffffffffffffffff1673ffffffffffffffffffffffffffffffffffffffff1681526020019081526020016000205490506000600460008673ffffffffffffffffffffffffffffffffffffffff1673ffffffffffffffffffffffffffffffffffffffff16815260200190815260200160002060006101000a81548160ff0219169083151502179055506108e6843083611afd565b50505050565b80600080156109c05760011515600460008473ffffffffffffffffffffffffffffffffffffffff1673ffffffffffffffffffffffffffffffffffffffff16815260200190815260200160002060009054906101000a900460ff161515146109bb576040517f08c379a00000000000000000000000000000000000000000000000000000000081526004018080602001828103825260128152602001807f6d7573742062652072656769737465726564000000000000000000000000000081525060200191505060405180910390fd5b610a87565b60001515600460008473ffffffffffffffffffffffffffffffffffffffff1673ffffffffffffffffffffffffffffffffffffffff16815260200190815260200160002060009054906101000a900460ff16151514610a86576040517f08c379a00000000000000000000000000000000000000000000000000000000081526004018080602001828103825260168152602001807f6d757374204e4f5420626520726567697374657265640000000000000000000081525060200191505060405180910390fd5b5b600560009054906101000a900473ffffffffffffffffffffffffffffffffffffffff1673ffffffffffffffffffffffffffffffffffffffff163373ffffffffffffffffffffffffffffffffffffffff1614610b4a576040517f08c379a000000000000000000000000000000000000000000000000000000000815260040180806020018281038252600a8152602001807f6f6e6c792061646d696e0000000000000000000000000000000000000000000081525060200191505060405180910390fd5b6001600460008573ffffffffffffffffffffffffffffffffffffffff1673ffffffffffffffffffffffffffffffffffffffff16815260200190815260200160002060006101000a81548160ff0219169083151502179055506101f4600260008573ffffffffffffffffffffffffffffffffffffffff1673ffffffffffffffffffffffffffffffffffffffff168152602001908152602001600020600082825401925050819055506101f4600360008573ffffffffffffffffffffffffffffffffffffffff1673ffffffffffffffffffffffffffffffffffffffff16815260200190815260200160002060008282540192505081905550505050565b60016020528060005260406000206000915090508060000154908060010160009054906101000a900473ffffffffffffffffffffffffffffffffffffffff1690806002018054600181600116156101000203166002900480601f016020809104026020016040519081016040528092919081815260200182805460018160011615610100020316600290048015610d1d5780601f10610cf257610100808354040283529160200191610d1d565b820191906000526020600020905b815481529060010190602001808311610d0057829003601f168201915b5050505050908060030154908060040160009054906101000a900460ff16905085565b600560009054906101000a900473ffffffffffffffffffffffffffffffffffffffff1673ffffffffffffffffffffffffffffffffffffffff163373ffffffffffffffffffffffffffffffffffffffff1614610e03576040517f08c379a000000000000000000000000000000000000000000000000000000000815260040180806020018281038252600a8152602001807f6f6e6c792061646d696e0000000000000000000000000000000000000000000081525060200191505060405180910390fd5b60008060008381526020019081526020016000209050600081600001541415610e94576040517f08c379a00000000000000000000000000000000000000000000000000000000081526004018080602001828103825260108152602001807f7472616465206d7573742065786973740000000000000000000000000000000081525060200191505060405180910390fd5b60006001811115610ea157fe5b8160050160009054906101000a900460ff166001811115610ebe57fe5b14610f31576040517f08c379a000000000000000000000000000000000000000000000000000000000815260040180806020018281038252601e8152602001807f7472616465206d75737420626520696e2050454e44494e47207374617465000081525060200191505060405180910390fd5b60018160050160006101000a81548160ff02191690836001811115610f5257fe5b02179055508060040154600360003373ffffffffffffffffffffffffffffffffffffffff1673ffffffffffffffffffffffffffffffffffffffff16815260200190815260200160002060008282540192505081905550610fff8160020160009054906101000a900473ffffffffffffffffffffffffffffffffffffffff168260030160009054906101000a900473ffffffffffffffffffffffffffffffffffffffff168360040154611afd565b5050565b33600180156110d75760011515600460008473ffffffffffffffffffffffffffffffffffffffff1673ffffffffffffffffffffffffffffffffffffffff16815260200190815260200160002060009054906101000a900460ff161515146110d2576040517f08c379a00000000000000000000000000000000000000000000000000000000081526004018080602001828103825260128152602001807f6d7573742062652072656769737465726564000000000000000000000000000081525060200191505060405180910390fd5b61119e565b60001515600460008473ffffffffffffffffffffffffffffffffffffffff1673ffffffffffffffffffffffffffffffffffffffff16815260200190815260200160002060009054906101000a900460ff1615151461119d576040517f08c379a00000000000000000000000000000000000000000000000000000000081526004018080602001828103825260168152602001807f6d757374204e4f5420626520726567697374657265640000000000000000000081525060200191505060405180910390fd5b5b60008311611214576040517f08c379a00000000000000000000000000000000000000000000000000000000081526004018080602001828103825260168152602001807f63616e6e6f742073656c6c2066726565206974656d730000000000000000000081525060200191505060405180910390fd5b6000600660008154809291906001019190505590506040518060a001604052808281526020013373ffffffffffffffffffffffffffffffffffffffff16815260200187878080601f016020809104026020016040519081016040528093929190818152602001838380828437600081840152601f19601f820116905080830192505050505050508152602001858152602001600060018111156112b357fe5b815250600160008381526020019081526020016000206000820151816000015560208201518160010160006101000a81548173ffffffffffffffffffffffffffffffffffffffff021916908373ffffffffffffffffffffffffffffffffffffffff1602179055506040820151816002019080519060200190611336929190611cce565b506060820151816003015560808201518160040160006101000a81548160ff0219169083600181111561136557fe5b0217905550905050505050505050565b33600180156114495760011515600460008473ffffffffffffffffffffffffffffffffffffffff1673ffffffffffffffffffffffffffffffffffffffff16815260200190815260200160002060009054906101000a900460ff16151514611444576040517f08c379a00000000000000000000000000000000000000000000000000000000081526004018080602001828103825260128152602001807f6d7573742062652072656769737465726564000000000000000000000000000081525060200191505060405180910390fd5b611510565b60001515600460008473ffffffffffffffffffffffffffffffffffffffff1673ffffffffffffffffffffffffffffffffffffffff16815260200190815260200160002060009054906101000a900460ff1615151461150f576040517f08c379a00000000000000000000000000000000000000000000000000000000081526004018080602001828103825260168152602001807f6d757374204e4f5420626520726567697374657265640000000000000000000081525060200191505060405180910390fd5b5b34600260003373ffffffffffffffffffffffffffffffffffffffff1673ffffffffffffffffffffffffffffffffffffffff1681526020019081526020016000206000828254019250508190555034600360003373ffffffffffffffffffffffffffffffffffffffff1673ffffffffffffffffffffffffffffffffffffffff168152602001908152602001600020600082825401925050819055505050565b33600180156116825760011515600460008473ffffffffffffffffffffffffffffffffffffffff1673ffffffffffffffffffffffffffffffffffffffff16815260200190815260200160002060009054906101000a900460ff1615151461167d576040517f08c379a00000000000000000000000000000000000000000000000000000000081526004018080602001828103825260128152602001807f6d7573742062652072656769737465726564000000000000000000000000000081525060200191505060405180910390fd5b611749565b60001515600460008473ffffffffffffffffffffffffffffffffffffffff1673ffffffffffffffffffffffffffffffffffffffff16815260200190815260200160002060009054906101000a900460ff16151514611748576040517f08c379a00000000000000000000000000000000000000000000000000000000081526004018080602001828103825260168152602001807f6d757374204e4f5420626520726567697374657265640000000000000000000081525060200191505060405180910390fd5b5b600060016000858152602001908152602001600020905060008160000154116117da576040517f08c379a00000000000000000000000000000000000000000000000000000000081526004018080602001828103825260108152602001807f6f66666572206d7573742065786973740000000000000000000000000000000081525060200191505060405180910390fd5b600060018111156117e757fe5b8160040160009054906101000a900460ff16600181111561180457fe5b14611877576040517f08c379a00000000000000000000000000000000000000000000000000000000081526004018080602001828103825260158152602001807f6f66666572206d7573742062652070656e64696e67000000000000000000000081525060200191505060405180910390fd5b8060030154600360003373ffffffffffffffffffffffffffffffffffffffff1673ffffffffffffffffffffffffffffffffffffffff1681526020019081526020016000205410156118c757600080fd5b8060030154600360003373ffffffffffffffffffffffffffffffffffffffff1673ffffffffffffffffffffffffffffffffffffffff1681526020019081526020016000206000828254039250508190555060018160040160006101000a81548160ff0219169083600181111561193957fe5b02179055506000600760008154809291906001019190505590506040518060c00160405280828152602001836000015481526020013373ffffffffffffffffffffffffffffffffffffffff1681526020018360010160009054906101000a900473ffffffffffffffffffffffffffffffffffffffff1673ffffffffffffffffffffffffffffffffffffffff16815260200183600301548152602001600060018111156119e157fe5b81525060008060076000815480929190600101919050558152602001908152602001600020600082015181600001556020820151816001015560408201518160020160006101000a81548173ffffffffffffffffffffffffffffffffffffffff021916908373ffffffffffffffffffffffffffffffffffffffff16021790555060608201518160030160006101000a81548173ffffffffffffffffffffffffffffffffffffffff021916908373ffffffffffffffffffffffffffffffffffffffff1602179055506080820151816004015560a08201518160050160006101000a81548160ff02191690836001811115611ad657fe5b02179055509050505050505050565b60036020528060005260406000206000915090505481565b80600260008573ffffffffffffffffffffffffffffffffffffffff1673ffffffffffffffffffffffffffffffffffffffff168152602001908152602001600020541015611b95576040517f08c379a0000000000000000000000000000000000000000000000000000000008152600401808060200182810382526029815260200180611d6c6029913960400191505060405180910390fd5b80600260008573ffffffffffffffffffffffffffffffffffffffff1673ffffffffffffffffffffffffffffffffffffffff1681526020019081526020016000206000828254039250508190555080600360008573ffffffffffffffffffffffffffffffffffffffff1673ffffffffffffffffffffffffffffffffffffffff1681526020019081526020016000206000828254039250508190555080600260008473ffffffffffffffffffffffffffffffffffffffff1673ffffffffffffffffffffffffffffffffffffffff1681526020019081526020016000206000828254019250508190555080600360008473ffffffffffffffffffffffffffffffffffffffff1673ffffffffffffffffffffffffffffffffffffffff16815260200190815260200160002060008282540192505081905550505050565b828054600181600116156101000203166002900490600052602060002090601f016020900481019282601f10611d0f57805160ff1916838001178555611d3d565b82800160010185558215611d3d579182015b82811115611d3c578251825591602001919060010190611d21565b5b509050611d4a9190611d4e565b5090565b5b80821115611d67576000816000905550600101611d4f565b509056fe63616e6e6f74207472616e73666572206d6f7265207468616e2063757272656e742062616c616e6365a2646970667358221220a10694c5265e767a8bba230f68ac5d077c837ac6675205a9c18d9993ff411c2d64736f6c634300060c0033",
  "immutableReferences": {},
  "source": "pragma solidity 0.6.12;\r\n\r\ncontract MarketPlace {\r\n    enum Status { \r\n        PENDING, \r\n        SOLD\r\n    }\r\n\r\n    struct Trade {\r\n        uint id;\r\n        uint offerId;\r\n        address buyer;\r\n        address seller;\r\n        uint price;\r\n        Status status;\r\n    }\r\n\r\n    struct Offer {\r\n        uint id;\r\n        address seller;\r\n        string description;\r\n        uint price;\r\n        Status status;\r\n    }\r\n    mapping(uint => Trade) public trades;\r\n    mapping(uint => Offer) public offers;\r\n    mapping(address => uint) public balances;\r\n    mapping(address => uint) public availableBalances; //take into consideration pending trades\r\n    mapping(address => bool) public members;\r\n    address admin;\r\n    \r\n    uint offerID = 1;\r\n    uint tradeID = 1;\r\n\r\n     modifier onlyMember(address member, bool registered) {\r\n        if(registered) {\r\n            require(members[member] == true, 'must be registered');\r\n        } else {\r\n            require(members[member] == false, 'must NOT be registered');\r\n        }\r\n        _;\r\n    }\r\n    \r\n    modifier onlyAdmin() {\r\n        require(msg.sender == admin, 'only admin');\r\n        _;\r\n    }\r\n    \r\n    constructor() public {\r\n        admin = msg.sender;\r\n    }\r\n\r\n    function sell(string calldata description, uint price) external onlyMember(msg.sender, true) {\r\n        require(price > 0, 'cannot sell free items');\r\n        uint offerId = offerID++;\r\n        offers[offerId] = Offer(offerId, msg.sender, description, price, Status.PENDING);\r\n    }\r\n    \r\n    function buy(uint offerId) external onlyMember(msg.sender, true) {\r\n        Offer storage offer = offers[offerId];\r\n        require(offer.id > 0, 'offer must exist');\r\n        require(offer.status == Status.PENDING, 'offer must be pending');\r\n        require(availableBalances[msg.sender] >= offer.price);\r\n        availableBalances[msg.sender] -= offer.price;\r\n        offer.status = Status.SOLD;\r\n        uint tradeId = tradeID++;\r\n        trades[tradeID++] = Trade(tradeId, offer.id, msg.sender, offer.seller, offer.price, Status.PENDING);\r\n    }\r\n        \r\n    function deposit() external payable onlyMember(msg.sender, true) {\r\n        balances[msg.sender] += msg.value;\r\n        availableBalances[msg.sender] += msg.value;\r\n    }\r\n\r\n    function settle(uint txId) external onlyAdmin() {\r\n        Trade storage trade = trades[txId];\r\n        require(trade.id != 0, 'trade must exist');\r\n        require(trade.status == Status.PENDING, 'trade must be in PENDING state');\r\n        trade.status = Status.SOLD;\r\n        availableBalances[msg.sender] += trade.price;\r\n        _transfer(trade.buyer, trade.seller, trade.price);\r\n    }\r\n    \r\n    function register(address member) external onlyMember(member, false) onlyAdmin() {\r\n        members[member] = true;\r\n        balances[member] += 500;\r\n        availableBalances[member] += 500;\r\n    }\r\n    \r\n    function unregister(address member) external onlyMember(member, true) onlyAdmin() {\r\n        uint memberBalance = balances[member];\r\n        members[member] = false;\r\n        _transfer(member, address(this), memberBalance);\r\n    }\r\n    \r\n    function _transfer(address from, address to, uint amount) internal {\r\n        require(balances[from] >= amount, 'cannot transfer more than current balance');\r\n        balances[from] -= amount;\r\n        availableBalances[from] -= amount;\r\n        balances[to] += amount;\r\n        availableBalances[to] += amount;\r\n    }\r\n    \r\n    //Can send ether to smart contract\r\n    fallback() external payable {}\r\n    \r\n   \r\n}\r\n",
  "sourcePath": "C:/Users/USER/Desktop/Market-DApp/contracts/MarketPlace.sol",
  "compiler": {
    "name": "solc",
    "version": "0.6.12+commit.27d51765.Emscripten.clang"
  },
  "schemaVersion": "3.4.1",
  "updatedAt": "2021-06-18T15:23:58.200Z",
  "networkType": "ethereum",
  "devdoc": {
    "kind": "dev",
    "methods": {},
    "version": 1
  },
  "userdoc": {
    "kind": "user",
    "methods": {},
    "version": 1
  }
}